{"abi":[{"type":"constructor","inputs":[{"name":"_cometAddress","type":"address","internalType":"address"},{"name":"_wrapperAddress","type":"address","internalType":"address"},{"name":"_contractFeeModifier","type":"uint16","internalType":"uint16"},{"name":"_minDueDateParameter","type":"uint256","internalType":"uint256"},{"name":"_maxDueDateParameter","type":"uint256","internalType":"uint256"},{"name":"_minTotalAmountParameter","type":"uint256","internalType":"uint256"},{"name":"_maxPayoutArraySize","type":"uint8","internalType":"uint8"}],"stateMutability":"payable"},{"type":"function","name":"ERC20FeeProxyAddress","inputs":[],"outputs":[{"name":"","type":"address","internalType":"address"}],"stateMutability":"view"},{"type":"function","name":"baseAsset","inputs":[],"outputs":[{"name":"","type":"address","internalType":"address"}],"stateMutability":"view"},{"type":"function","name":"claimBaseAssetBalance","inputs":[],"outputs":[],"stateMutability":"nonpayable"},{"type":"function","name":"claimCompRewards","inputs":[],"outputs":[],"stateMutability":"nonpayable"},{"type":"function","name":"cometAddress","inputs":[],"outputs":[{"name":"","type":"address","internalType":"address"}],"stateMutability":"view"},{"type":"function","name":"contractFeeModifier","inputs":[],"outputs":[{"name":"","type":"uint16","internalType":"uint16"}],"stateMutability":"view"},{"type":"function","name":"getMapping","inputs":[{"name":"_paymentReference","type":"bytes","internalType":"bytes"}],"outputs":[{"name":"","type":"tuple","internalType":"struct Paytr.PaymentERC20","components":[{"name":"amount","type":"uint256","internalType":"uint256"},{"name":"feeAmount","type":"uint256","internalType":"uint256"},{"name":"wrapperSharesReceived","type":"uint256","internalType":"uint256"},{"name":"dueDate","type":"uint40","internalType":"uint40"},{"name":"payer","type":"address","internalType":"address"},{"name":"payee","type":"address","internalType":"address"},{"name":"feeAddress","type":"address","internalType":"address"},{"name":"shouldPayoutViaRequestNetwork","type":"uint8","internalType":"uint8"}]}],"stateMutability":"view"},{"type":"function","name":"maxDueDateParameter","inputs":[],"outputs":[{"name":"","type":"uint256","internalType":"uint256"}],"stateMutability":"view"},{"type":"function","name":"maxPayoutArraySize","inputs":[],"outputs":[{"name":"","type":"uint8","internalType":"uint8"}],"stateMutability":"view"},{"type":"function","name":"minDueDateParameter","inputs":[],"outputs":[{"name":"","type":"uint256","internalType":"uint256"}],"stateMutability":"view"},{"type":"function","name":"minTotalAmountParameter","inputs":[],"outputs":[{"name":"","type":"uint256","internalType":"uint256"}],"stateMutability":"view"},{"type":"function","name":"owner","inputs":[],"outputs":[{"name":"","type":"address","internalType":"address"}],"stateMutability":"view"},{"type":"function","name":"pause","inputs":[],"outputs":[],"stateMutability":"nonpayable"},{"type":"function","name":"paused","inputs":[],"outputs":[{"name":"","type":"bool","internalType":"bool"}],"stateMutability":"view"},{"type":"function","name":"payInvoiceERC20","inputs":[{"name":"_payee","type":"address","internalType":"address"},{"name":"_feeAddress","type":"address","internalType":"address"},{"name":"_dueDate","type":"uint40","internalType":"uint40"},{"name":"_amount","type":"uint256","internalType":"uint256"},{"name":"_feeAmount","type":"uint256","internalType":"uint256"},{"name":"_paymentReference","type":"bytes","internalType":"bytes"},{"name":"_shouldPayoutViaRequestNetwork","type":"uint8","internalType":"uint8"}],"outputs":[],"stateMutability":"nonpayable"},{"type":"function","name":"payInvoiceERC20Escrow","inputs":[{"name":"_payee","type":"address","internalType":"address"},{"name":"_feeAddress","type":"address","internalType":"address"},{"name":"_amount","type":"uint256","internalType":"uint256"},{"name":"_feeAmount","type":"uint256","internalType":"uint256"},{"name":"_paymentReference","type":"bytes","internalType":"bytes"},{"name":"_shouldPayoutViaRequestNetwork","type":"uint8","internalType":"uint8"}],"outputs":[],"stateMutability":"nonpayable"},{"type":"function","name":"payOutERC20Invoice","inputs":[{"name":"payoutReferencesArray","type":"bytes[]","internalType":"bytes[]"}],"outputs":[],"stateMutability":"nonpayable"},{"type":"function","name":"paymentMapping","inputs":[{"name":"","type":"bytes","internalType":"bytes"}],"outputs":[{"name":"amount","type":"uint256","internalType":"uint256"},{"name":"feeAmount","type":"uint256","internalType":"uint256"},{"name":"wrapperSharesReceived","type":"uint256","internalType":"uint256"},{"name":"dueDate","type":"uint40","internalType":"uint40"},{"name":"payer","type":"address","internalType":"address"},{"name":"payee","type":"address","internalType":"address"},{"name":"feeAddress","type":"address","internalType":"address"},{"name":"shouldPayoutViaRequestNetwork","type":"uint8","internalType":"uint8"}],"stateMutability":"view"},{"type":"function","name":"releaseEscrowPayment","inputs":[{"name":"_paymentReference","type":"bytes","internalType":"bytes"}],"outputs":[],"stateMutability":"nonpayable"},{"type":"function","name":"renounceOwnership","inputs":[],"outputs":[],"stateMutability":"nonpayable"},{"type":"function","name":"setContractParameters","inputs":[{"name":"_contractFeeModifier","type":"uint16","internalType":"uint16"},{"name":"_minDueDateParameter","type":"uint256","internalType":"uint256"},{"name":"_maxDueDateParameter","type":"uint256","internalType":"uint256"},{"name":"_minTotalAmountParameter","type":"uint256","internalType":"uint256"},{"name":"_maxPayoutArraySize","type":"uint8","internalType":"uint8"}],"outputs":[],"stateMutability":"nonpayable"},{"type":"function","name":"setERC20FeeProxy","inputs":[{"name":"_ERC20FeeProxyAddress","type":"address","internalType":"address"}],"outputs":[],"stateMutability":"nonpayable"},{"type":"function","name":"transferOwnership","inputs":[{"name":"newOwner","type":"address","internalType":"address"}],"outputs":[],"stateMutability":"nonpayable"},{"type":"function","name":"unpause","inputs":[],"outputs":[],"stateMutability":"nonpayable"},{"type":"function","name":"wrapperAddress","inputs":[],"outputs":[{"name":"","type":"address","internalType":"address"}],"stateMutability":"view"},{"type":"event","name":"ClaimCompRewardsEvent","inputs":[],"anonymous":false},{"type":"event","name":"ContractParametersUpdatedEvent","inputs":[{"name":"contractFeeModifier","type":"uint16","indexed":false,"internalType":"uint16"},{"name":"minDueDateParameter","type":"uint256","indexed":false,"internalType":"uint256"},{"name":"maxDueDateParameter","type":"uint256","indexed":false,"internalType":"uint256"},{"name":"minTotalAmount","type":"uint256","indexed":false,"internalType":"uint256"},{"name":"maxPayoutArraySize","type":"uint8","indexed":false,"internalType":"uint8"}],"anonymous":false},{"type":"event","name":"InterestPayoutEvent","inputs":[{"name":"tokenAddress","type":"address","indexed":false,"internalType":"address"},{"name":"payee","type":"address","indexed":false,"internalType":"address"},{"name":"interestAmount","type":"uint256","indexed":false,"internalType":"uint256"},{"name":"paymentReference","type":"bytes","indexed":false,"internalType":"bytes"}],"anonymous":false},{"type":"event","name":"OwnershipTransferred","inputs":[{"name":"previousOwner","type":"address","indexed":true,"internalType":"address"},{"name":"newOwner","type":"address","indexed":true,"internalType":"address"}],"anonymous":false},{"type":"event","name":"Paused","inputs":[{"name":"account","type":"address","indexed":false,"internalType":"address"}],"anonymous":false},{"type":"event","name":"PayOutERC20Event","inputs":[{"name":"tokenAddress","type":"address","indexed":false,"internalType":"address"},{"name":"payee","type":"address","indexed":false,"internalType":"address"},{"name":"feeAddress","type":"address","indexed":false,"internalType":"address"},{"name":"amount","type":"uint256","indexed":false,"internalType":"uint256"},{"name":"paymentReference","type":"bytes","indexed":false,"internalType":"bytes"},{"name":"feeAmount","type":"uint256","indexed":false,"internalType":"uint256"}],"anonymous":false},{"type":"event","name":"PaymentERC20Event","inputs":[{"name":"tokenAddress","type":"address","indexed":false,"internalType":"address"},{"name":"payee","type":"address","indexed":false,"internalType":"address"},{"name":"feeAddress","type":"address","indexed":false,"internalType":"address"},{"name":"amount","type":"uint256","indexed":false,"internalType":"uint256"},{"name":"dueDate","type":"uint40","indexed":false,"internalType":"uint40"},{"name":"feeAmount","type":"uint256","indexed":false,"internalType":"uint256"},{"name":"paymentReference","type":"bytes","indexed":false,"internalType":"bytes"}],"anonymous":false},{"type":"event","name":"SetERC20FeeProxyEvent","inputs":[{"name":"ERC20FeeProxyAddress","type":"address","indexed":false,"internalType":"address"}],"anonymous":false},{"type":"event","name":"Unpaused","inputs":[{"name":"account","type":"address","indexed":false,"internalType":"address"}],"anonymous":false},{"type":"error","name":"DueDateNotAllowed","inputs":[]},{"type":"error","name":"InvalidArrayLength","inputs":[]},{"type":"error","name":"InvalidContractFeeModifier","inputs":[]},{"type":"error","name":"InvalidMaxArraySize","inputs":[]},{"type":"error","name":"InvalidMaxDueDate","inputs":[]},{"type":"error","name":"InvalidMinAmount","inputs":[]},{"type":"error","name":"InvalidMinDueDate","inputs":[]},{"type":"error","name":"InvalidTotalAmount","inputs":[]},{"type":"error","name":"NoPrePayment","inputs":[]},{"type":"error","name":"NotPayer","inputs":[]},{"type":"error","name":"PaymentReferenceInUse","inputs":[]},{"type":"error","name":"ReferenceNotDue","inputs":[]},{"type":"error","name":"ReferenceNotInEscrow","inputs":[]},{"type":"error","name":"ZeroAmount","inputs":[]},{"type":"error","name":"ZeroFeeAddress","inputs":[]},{"type":"error","name":"ZeroPayeeAddress","inputs":[]}],"bytecode":{"object":"0x60e080604052600060e0826124e0803803809161001c828561033a565b8339810103126103335761002f82610373565b9161003c60208201610373565b92604082015161ffff8116928382036103365760608101519360808201519560c060a08401519301519260ff841691828503610333578054336001600160a01b0382167f8be0079c531659141344cd1fd0a4f28419497f9722a3daafe3b4186f6b6457e08480a36001600160a81b0319163360ff60a01b19161790556001805561138883108015610328575b61031757620697808710610306576301e1338088116102f557600181106102e45781156102d3576004976020977f7e2c6359e276662df7728b39a0ad6d74d0333c402835ac343a5208bbf5a23d549660a0966002549083600355848d558560055560ff891b90891b169161ffff60a81b9060a81b169062ffffff891b1916171760025560405194855288850152604084015260608301526080820152a160c081905260405163c55dae6360e01b815292839182906001600160a01b03165afa90811561028857600091610299575b5060805260a081905260c0516001600160a01b031690813b156102945760405163110496e560e01b81526001600160a01b03909116600482015260016024820152906000908290604490829084905af1801561028857610276575b6040516121589081610388823960805181818161023501528181610385015281816106f9015281816109b601528181610ebc01526112cc015260a05181818161047801528181610b0b01528181610dc40152818161131e015261199e015260c0518181816103c501528181610a0b01528181610fc4015281816112f60152611ec40152f35b60006102819161033a565b60006101f1565b6040513d6000823e3d90fd5b600080fd5b90506020813d6020116102cb575b816102b46020938361033a565b81010312610294576102c590610373565b38610196565b3d91506102a7565b63f39d15db60e01b60005260046000fd5b639c68554f60e01b60005260046000fd5b6329efbf6360e21b60005260046000fd5b63f57c57d360e01b60005260046000fd5b637b4a552360e11b60005260046000fd5b5061271083116100c8565b80fd5b8480fd5b601f909101601f19168101906001600160401b0382119082101761035d57604052565b634e487b7160e01b600052604160045260246000fd5b51906001600160a01b03821682036102945756fe608080604052600436101561001357600080fd5b600090813560e01c9081631949b25c14611b0f5750806324c2074014611ae65780633d1d15bf14611ac85780633f4ba83a14611a2d57806345107cae1461197757806346778635146118e15780634beb2a1e1461125d57806350fba64a1461119b5780635738e8181461105457806358911397146110365780635c975abb14611011578063616212ba14610ff35780636bbb194b14610fae5780636e2f87f314610e4d578063715018a614610df35780637df8b80214610dae5780638456cb5914610d4d578063887d5d3d146108c25780638c4c7e04146107735780638da5cb5b1461074c578063c11e284614610728578063cdf456e1146106e3578063d2cd134a146102c2578063ed19fa84146101fc5763f2fde38b1461013457600080fd5b346101f95760203660031901126101f95761014d611c2f565b610155611d32565b6001600160a01b031680156101a55781546001600160a01b03198116821783556001600160a01b03167f8be0079c531659141344cd1fd0a4f28419497f9722a3daafe3b4186f6b6457e08380a380f35b60405162461bcd60e51b815260206004820152602660248201527f4f776e61626c653a206e6577206f776e657220697320746865207a65726f206160448201526564647265737360d01b6064820152608490fd5b80fd5b50346101f957806003193601126101f957610215611d32565b80546040516370a0823160e01b8152306004820152906001600160a01b037f000000000000000000000000000000000000000000000000000000000000000081169116602083602481855afa9182156102b757849261027c575b6102799350611de0565b80f35b91506020833d6020116102af575b8161029760209383611b65565b810103126102aa5761027992519161026f565b600080fd5b3d915061028a565b6040513d86823e3d90fd5b50346101f95760c03660031901126101f9576102dc611c2f565b906102e5611c45565b6044359260643560843567ffffffffffffffff81116106df5761030c903690600401611c5b565b909160a4359660ff88168098036106db57610325611d8a565b61032d611e1e565b60405183858237602081858101600681520301902061034c8383611d25565b9582156106cc576001600160a01b03169687156106bd576001600160a01b03169081156106ab575461069c57600554861061068d5787987f000000000000000000000000000000000000000000000000000000000000000060018060a01b038116976103ba8130338c611e65565b6103c2611ea9565b917f00000000000000000000000000000000000000000000000000000000000000006001600160a01b031691823b1561068957604051631e573fb760e31b81526001600160a01b039290921660048301526024820152908b908290604490829084905af190811561067e578b91610665575b5050602061044c61047392610447611ea9565b611ce1565b604051636e553f6560e01b8152600481019190915230602482015291829081906044820190565b03818d7f00000000000000000000000000000000000000000000000000000000000000006001600160a01b03165af190811561065a578a91610615575b508260ff869594936005898d7f160b9883c8416d313cc749bc5858db361276143105365a035258beace5bf3b3e9f8d6105d89861060b9f9e9d604051956104f687611b32565b8d87526020870191825260408701928352606087019485526020608088019433865260a0890197885260c089019c8d5260e089019a8b5282604051938492833760069082019081520301902095518655516001860155516002850155905160038401805492516001600160c81b031990931664ffffffffff929092169190911760289290921b65010000000000600160c81b0316919091179055516004820180546001600160a01b0319166001600160a01b0392831617905594519101805492516001600160a81b03199093169190941617911660a01b60ff60a01b16179055565b604051978897885260208801526040870152606086015287608086015260a085015260e060c085015260e0840191611d04565b0390a16001805580f35b99505094939291906020893d602011610652575b8161063660209383611b65565b810103126102aa579751899894959394929391929190826104b0565b3d9150610629565b6040513d8c823e3d90fd5b8161066f91611b65565b61067a578938610434565b8980fd5b6040513d8d823e3d90fd5b8c80fd5b6324204a3560e21b8852600488fd5b630a685b0f60e41b8852600488fd5b600162287bad60e01b03198952600489fd5b631781d75760e01b8952600489fd5b631f2a200560e01b8952600489fd5b8680fd5b8480fd5b50346101f957806003193601126101f9576040517f00000000000000000000000000000000000000000000000000000000000000006001600160a01b03168152602090f35b50346101f957806003193601126101f957602060ff60025460a01c16604051908152f35b50346101f957806003193601126101f957546040516001600160a01b039091168152602090f35b50346101f95760a03660031901126101f95760043561ffff8116908181036108be57602435604435606435916084359360ff8516948581036108ba576107b7611d32565b611388871080156108af575b6108a057620697808310610891576301e1338084116108825760018510610873578515610864579160a09593917f7e2c6359e276662df7728b39a0ad6d74d0333c402835ac343a5208bbf5a23d549795936002549083600355846004558560055560ff891b90891b169161ffff60a81b9060a81b169062ffffff891b191617176002556040519485526020850152604084015260608301526080820152a180f35b63f39d15db60e01b8852600488fd5b639c68554f60e01b8852600488fd5b6329efbf6360e21b8852600488fd5b63f57c57d360e01b8852600488fd5b637b4a552360e11b8852600488fd5b5061271087116107c3565b8780fd5b8280fd5b50346101f95760e03660031901126101f9576108dc611c2f565b6108e4611c45565b6044359164ffffffffff8316809303610c45576064359260843560a43567ffffffffffffffff81116106db5761091e903690600401611c5b565b91909260c4359660ff8816809803610d4957610938611d8a565b610940611e1e565b60405184868237602081868101600681520301902061095f8483611d25565b968215610d3a576001600160a01b0316978815610d2b576001600160a01b0316908115610d195754610d0a576005548710610cfb5764ffffffffff6109a660035442611d25565b1683108015610ce0575b610cd1577f0000000000000000000000000000000000000000000000000000000000000000986001600160a01b038a16978b906109ef8130338d611e65565b6109f7611ea9565b60405163095ea7b360e01b602082019081527f00000000000000000000000000000000000000000000000000000000000000006001600160a01b038116602484015260448084018690528352929e92918d9186908190610a58606485611b65565b83519082865af1610a6761203f565b81610ca2575b5080610c98575b15610c49575b50506001600160a01b031691823b15610c4557604051631e573fb760e31b81526001600160a01b0392909216600483015260248201529082908290604490829084905af18015610c3a57610c21575b50506020610adc610b079b610447611ea9565b604051636e553f6560e01b815260048101919091523060248201529a8b908d90829081906044820190565b03917f00000000000000000000000000000000000000000000000000000000000000006001600160a01b03165af1801561067e578b90610bbd575b7f160b9883c8416d313cc749bc5858db361276143105365a035258beace5bf3b3e9a508260ff8695949360058a8e8b9a8e61060b9f9e9d98610b8b99604051956104f687611b32565b6040519889988952602089015260408801526060870152608086015260a085015260e060c085015260e0840191611d04565b5095949392919060208a3d602011610c19575b81610bdd60209383611b65565b810103126102aa5798517f160b9883c8416d313cc749bc5858db361276143105365a035258beace5bf3b3e999596949593949293919290610b42565b3d9150610bd0565b81610c2b91611b65565b610c36578a38610ac9565b8a80fd5b6040513d84823e3d90fd5b8380fd5b60405163095ea7b360e01b60208201526001600160a01b038416602482015260448082018890528152610c9192610c8b9190610c86606483611b65565b611f53565b8d611f53565b8b38610a7a565b50813b1515610a74565b8051801592508215610cb7575b505038610a6d565b610cca9250602080918301019101611f3b565b3880610caf565b6354ad112d60e11b8a5260048afd5b5064ffffffffff610cf360045442611d25565b1683116109b0565b6324204a3560e21b8a5260048afd5b630a685b0f60e41b8a5260048afd5b600162287bad60e01b03198b5260048bfd5b631781d75760e01b8b5260048bfd5b631f2a200560e01b8b5260048bfd5b8880fd5b50346101f957806003193601126101f957610d66611d32565b610d6e611e1e565b805460ff60a01b1916600160a01b1781556040513381527f62e78cea01bee320cd4e420270b5ea74000d11b0c9f74754ebdbfc544b05a25890602090a180f35b50346101f957806003193601126101f9576040517f00000000000000000000000000000000000000000000000000000000000000006001600160a01b03168152602090f35b50346101f957806003193601126101f957610e0c611d32565b80546001600160a01b03198116825581906001600160a01b03167f8be0079c531659141344cd1fd0a4f28419497f9722a3daafe3b4186f6b6457e08280a380f35b50346101f95760203660031901126101f9577fe87b20abc05306d2c168a182a3fbbea47f82ba3e6fb70ee1cafd86603730916f6020610e8a611c2f565b610e92611d32565b60018060a01b0316806bffffffffffffffffffffffff60a01b600254161760025560018060a01b037f000000000000000000000000000000000000000000000000000000000000000016604051858085830163095ea7b360e01b8152856024850152600019604485015260448452610f0b606485611b65565b83519082865af1610f1a61203f565b81610f81575b5080610f77575b15610f39575b5050604051908152a180f35b610f7091610c8660405163095ea7b360e01b8782015285602482015288604482015260448152610f6a606482611b65565b82611f53565b3880610f2d565b50813b1515610f27565b8051801592508215610f96575b505038610f20565b610fa7925081018601908601611f3b565b3880610f8e565b50346101f957806003193601126101f9576040517f00000000000000000000000000000000000000000000000000000000000000006001600160a01b03168152602090f35b50346101f957806003193601126101f9576020600354604051908152f35b50346101f957806003193601126101f95760ff6020915460a01c166040519015158152f35b50346101f957806003193601126101f9576020600554604051908152f35b50346101f9576110b660206101009261106c36611ba3565b9060e060405161107b81611b32565b82815282858201528260408201528260608201528260808201528260a08201528260c082015201528160405193828580945193849201611c0c565b8101600681520301902060ff604051916110cf83611b32565b8054928381526001820154916020820192835260028101546040830190815264ffffffffff60038301549160608501908284168252608086019360018060a01b039060281c168452600560018060a01b036004870154169560a088019687520154968860e060c089019860018060a01b038b168a52019860a01c168852604051998a525160208a01525160408901525116606087015260018060a01b03905116608086015260018060a01b0390511660a085015260018060a01b0390511660c0840152511660e0820152f35b50346101f9576111c260206111af36611ba3565b8160405193828580945193849201611c0c565b810160068152030190206003810190815460018060a01b038160281c16330361124e5764ffffffffff1661123f5754156112305761b478420180421161121c57815464ffffffffff191664ffffffffff9190911617905580f35b634e487b7160e01b83526011600452602483fd5b632a313f9360e01b8252600482fd5b63e6ef264960e01b8352600483fd5b631435e35760e01b8452600484fd5b50346101f95760203660031901126101f95760043567ffffffffffffffff81116117f357366023820112156117f35780600401359067ffffffffffffffff82116108be576024810190602436918460051b0101116108be576112bd611d8a565b811580156118d0575b6118c1577f0000000000000000000000000000000000000000000000000000000000000000916001600160a01b037f0000000000000000000000000000000000000000000000000000000000000000811691818516917f00000000000000000000000000000000000000000000000000000000000000001690865b81811061135057876001805580f35b602061135d828489611c89565b91908260405193849283378101600681520301902080549081156118b25760038101549064ffffffffff82164281119081156118a9575b5061189a5790818960058d96959401549387600160a01b6001900360048501541694600160a01b600190039060281c169780600160a01b600190038816948960018801549760020154946113e792611c89565b908160405192839283378101600681520360200190208181558160018201558160028201558160038201558160048201556005015560405191635d043b2960e11b8352600483015230602483015230604483015280828c815a93606492602095f180156117d157611865575b6040516370a0823160e01b815230600482015291506020826024818f5afa9182156117d1578d90829361182d575b506020602491604051928380926370a0823160e01b82523060048301525afa908115610c3a5782916117f7575b508d3b156117f3578f6114f0918f84928360405180968195829463f3fef3a360e01b84526004840160209093929193604081019460018060a01b031681520152565b03925af18015610c3a576117de575b5060249060208d604051938480926370a0823160e01b82523060048301525afa80156117d1578692859291611796575b50906104476115419461044793611ce1565b61ffff60025460a81c169081810291818304149015171561178257908a8f9493928e60ff6127108d93049960a01c16151560001461170b576002546001600160a01b03169250611592918a91611c89565b8291923b156106db578691888f84906115d96040519788968795869463c219a14d60e01b8652600486015260248501528a604485015260c0606485015260c4840191611d04565b8a60848301528960a483015203925af18015611700578c958f91928c936116d1575b50507fa5ed23d5ebdea6438acd5b68a3befbb14c431a7a8f221448bfb708ab8a408e9f97969360019a96936116628b7f3c77ae279df37c7ea5dd3a57f101c57dac95417ce9c24279d6ec87d9399c82d7989561168d955b61165d8d8d8b611de0565b611c89565b919092604051978897885260208801526040870152606086015260c0608086015260c0850191611d04565b9060a08301520390a16116c86116a485888d611c89565b6040519485948c865260208601526040850152608060608501526080840191611d04565b0390a101611341565b9093959897949a96506116e79250839150611b65565b6116fc5792939095899296888f8e90386115fb565b8d80fd5b6040513d87823e3d90fd5b60019a965093836116628b61168d948b9861176c88997fa5ed23d5ebdea6438acd5b68a3befbb14c431a7a8f221448bfb708ab8a408e9f9f9e7f3c77ae279df37c7ea5dd3a57f101c57dac95417ce9c24279d6ec87d9399c82d79d9a611de0565b87156116525761177d88878b611de0565b611652565b634e487b7160e01b8f52601160045260248ffd5b9250505060203d81116117ca575b6117ae8183611b65565b602082600092810103126101f95750518490839061044761152f565b503d6117a4565b50604051903d90823e3d90fd5b6117e9828092611b65565b6101f957386114ff565b5080fd5b91505060203d8111611826575b61180e8183611b65565b602082600092810103126101f957508f9051386114ae565b503d611804565b9250505060203d811161185e575b6118458183611b65565b602082600092810103126101f95750518e8c6020611481565b503d61183b565b5060203d8111611893575b61187a8183611b65565b602082600092810103126101f95750602490508e611453565b503d611870565b631db89f5b60e11b8b5260048bfd5b90501538611394565b632a313f9360e01b8a5260048afd5b634ec4810560e11b8352600483fd5b5060ff60025460a01c1682116112c6565b50346101f9576101006118f860206111af36611ba3565b8101600681520301902060ff8154916001810154906002810154600382015490600560018060a01b03600485015416930154936040519687526020870152604086015264ffffffffff8116606086015260018060a01b039060281c16608085015260a084015260018060a01b03811660c084015260a01c1660e0820152f35b50346101f957806003193601126101f957611990611d32565b805481906001600160a01b037f000000000000000000000000000000000000000000000000000000000000000081169116813b15611a2957829160248392604051958693849263144c5ebf60e31b845260048401525af180156117d157611a19575b7f0f309b4696119e6e18fbd9e53a22aa0b232e1b79c43f021161aef585944564518180a180f35b611a2291611b65565b38816119f2565b5050fd5b50346101f957806003193601126101f957611a46611d32565b805460ff8160a01c1615611a8c5760ff60a01b191681556040513381527f5db9ee0a495bf2e6ff9c91a7834c1ba4fdd244a5e8aa4e537bd38aeae4b073aa90602090a180f35b60405162461bcd60e51b815260206004820152601460248201527314185d5cd8589b194e881b9bdd081c185d5cd95960621b6044820152606490fd5b50346101f957806003193601126101f9576020600454604051908152f35b50346101f957806003193601126101f9576002546040516001600160a01b039091168152602090f35b9050346117f357816003193601126117f35760209061ffff60025460a81c168152f35b610100810190811067ffffffffffffffff821117611b4f57604052565b634e487b7160e01b600052604160045260246000fd5b90601f8019910116810190811067ffffffffffffffff821117611b4f57604052565b67ffffffffffffffff8111611b4f57601f01601f191660200190565b60206003198201126102aa5760043567ffffffffffffffff81116102aa57816023820112156102aa57806004013590611bdb82611b87565b92611be96040519485611b65565b828452602483830101116102aa5781600092602460209301838601378301015290565b60005b838110611c1f5750506000910152565b8181015183820152602001611c0f565b600435906001600160a01b03821682036102aa57565b602435906001600160a01b03821682036102aa57565b9181601f840112156102aa5782359167ffffffffffffffff83116102aa57602083818601950101116102aa57565b9190811015611ccb5760051b81013590601e19813603018212156102aa57019081359167ffffffffffffffff83116102aa5760200182360381136102aa579190565b634e487b7160e01b600052603260045260246000fd5b91908203918211611cee57565b634e487b7160e01b600052601160045260246000fd5b908060209392818452848401376000828201840152601f01601f1916010190565b91908201809211611cee57565b6000546001600160a01b03163303611d4657565b606460405162461bcd60e51b815260206004820152602060248201527f4f776e61626c653a2063616c6c6572206973206e6f7420746865206f776e65726044820152fd5b600260015414611d9b576002600155565b60405162461bcd60e51b815260206004820152601f60248201527f5265656e7472616e637947756172643a207265656e7472616e742063616c6c006044820152606490fd5b60405163a9059cbb60e01b60208201526001600160a01b03929092166024830152604480830193909352918152611e1c91610c86606483611b65565b565b60ff60005460a01c16611e2d57565b60405162461bcd60e51b815260206004820152601060248201526f14185d5cd8589b194e881c185d5cd95960821b6044820152606490fd5b6040516323b872dd60e01b60208201526001600160a01b039283166024820152929091166044830152606480830193909352918152611e1c91610c86608483611b65565b6040516370a0823160e01b81523060048201526020816024817f00000000000000000000000000000000000000000000000000000000000000006001600160a01b03165afa908115611f2f57600091611f00575090565b90506020813d602011611f27575b81611f1b60209383611b65565b810103126102aa575190565b3d9150611f0e565b6040513d6000823e3d90fd5b908160209103126102aa575180151581036102aa5790565b604080519092611fb8926001600160a01b0316906000908190611f768786611b65565b602085527f5361666545524332303a206c6f772d6c6576656c2063616c6c206661696c6564602086015260208151910182855af1611fb261203f565b9161206f565b8051908115918215612025575b505015611fcf5750565b5162461bcd60e51b815260206004820152602a60248201527f5361666545524332303a204552433230206f7065726174696f6e20646964206e6044820152691bdd081cdd58d8d9595960b21b6064820152608490fd5b6120389250602080918301019101611f3b565b3880611fc5565b3d1561206a573d9061205082611b87565b9161205e6040519384611b65565b82523d6000602084013e565b606090565b919290156120d15750815115612083575090565b3b1561208c5790565b60405162461bcd60e51b815260206004820152601d60248201527f416464726573733a2063616c6c20746f206e6f6e2d636f6e74726163740000006044820152606490fd5b8251909150156120e45750805190602001fd5b6044604051809262461bcd60e51b8252602060048301526121148151809281602486015260208686019101611c0c565b601f01601f19168101030190fdfea2646970667358221220f45503774d0be98ca288a9efd32638319b2e835ac9184db03e7a4044568cc45864736f6c634300081a0033","linkReferences":{}},"methodIdentifiers":{"ERC20FeeProxyAddress()":"24c20740","baseAsset()":"cdf456e1","claimBaseAssetBalance()":"ed19fa84","claimCompRewards()":"45107cae","cometAddress()":"6bbb194b","contractFeeModifier()":"1949b25c","getMapping(bytes)":"5738e818","maxDueDateParameter()":"3d1d15bf","maxPayoutArraySize()":"c11e2846","minDueDateParameter()":"616212ba","minTotalAmountParameter()":"58911397","owner()":"8da5cb5b","pause()":"8456cb59","paused()":"5c975abb","payInvoiceERC20(address,address,uint40,uint256,uint256,bytes,uint8)":"887d5d3d","payInvoiceERC20Escrow(address,address,uint256,uint256,bytes,uint8)":"d2cd134a","payOutERC20Invoice(bytes[])":"4beb2a1e","paymentMapping(bytes)":"46778635","releaseEscrowPayment(bytes)":"50fba64a","renounceOwnership()":"715018a6","setContractParameters(uint16,uint256,uint256,uint256,uint8)":"8c4c7e04","setERC20FeeProxy(address)":"6e2f87f3","transferOwnership(address)":"f2fde38b","unpause()":"3f4ba83a","wrapperAddress()":"7df8b802"},"id":31}