{"abi":[{"type":"constructor","inputs":[{"name":"_cometAddress","type":"address","internalType":"address"},{"name":"_wrapperAddress","type":"address","internalType":"address"},{"name":"_contractFeeModifier","type":"uint16","internalType":"uint16"},{"name":"_minDueDateParameter","type":"uint256","internalType":"uint256"},{"name":"_maxDueDateParameter","type":"uint256","internalType":"uint256"},{"name":"_minTotalAmountParameter","type":"uint256","internalType":"uint256"},{"name":"_maxPayoutArraySize","type":"uint8","internalType":"uint8"}],"stateMutability":"payable"},{"type":"function","name":"ERC20FeeProxyAddress","inputs":[],"outputs":[{"name":"","type":"address","internalType":"address"}],"stateMutability":"view"},{"type":"function","name":"baseAsset","inputs":[],"outputs":[{"name":"","type":"address","internalType":"address"}],"stateMutability":"view"},{"type":"function","name":"claimBaseAssetBalance","inputs":[],"outputs":[],"stateMutability":"nonpayable"},{"type":"function","name":"claimCompRewards","inputs":[],"outputs":[],"stateMutability":"nonpayable"},{"type":"function","name":"cometAddress","inputs":[],"outputs":[{"name":"","type":"address","internalType":"address"}],"stateMutability":"view"},{"type":"function","name":"contractFeeModifier","inputs":[],"outputs":[{"name":"","type":"uint16","internalType":"uint16"}],"stateMutability":"view"},{"type":"function","name":"getMapping","inputs":[{"name":"_paymentReference","type":"bytes","internalType":"bytes"}],"outputs":[{"name":"","type":"tuple","internalType":"struct Paytr.PaymentERC20","components":[{"name":"amount","type":"uint256","internalType":"uint256"},{"name":"feeAmount","type":"uint256","internalType":"uint256"},{"name":"wrapperSharesReceived","type":"uint256","internalType":"uint256"},{"name":"dueDate","type":"uint40","internalType":"uint40"},{"name":"payer","type":"address","internalType":"address"},{"name":"payee","type":"address","internalType":"address"},{"name":"feeAddress","type":"address","internalType":"address"},{"name":"shouldPayoutViaRequestNetwork","type":"bool","internalType":"bool"}]}],"stateMutability":"view"},{"type":"function","name":"maxDueDateParameter","inputs":[],"outputs":[{"name":"","type":"uint256","internalType":"uint256"}],"stateMutability":"view"},{"type":"function","name":"maxPayoutArraySize","inputs":[],"outputs":[{"name":"","type":"uint8","internalType":"uint8"}],"stateMutability":"view"},{"type":"function","name":"minDueDateParameter","inputs":[],"outputs":[{"name":"","type":"uint256","internalType":"uint256"}],"stateMutability":"view"},{"type":"function","name":"minTotalAmountParameter","inputs":[],"outputs":[{"name":"","type":"uint256","internalType":"uint256"}],"stateMutability":"view"},{"type":"function","name":"owner","inputs":[],"outputs":[{"name":"","type":"address","internalType":"address"}],"stateMutability":"view"},{"type":"function","name":"pause","inputs":[],"outputs":[],"stateMutability":"nonpayable"},{"type":"function","name":"paused","inputs":[],"outputs":[{"name":"","type":"bool","internalType":"bool"}],"stateMutability":"view"},{"type":"function","name":"payInvoiceERC20","inputs":[{"name":"_payee","type":"address","internalType":"address"},{"name":"_feeAddress","type":"address","internalType":"address"},{"name":"_dueDate","type":"uint40","internalType":"uint40"},{"name":"_amount","type":"uint256","internalType":"uint256"},{"name":"_feeAmount","type":"uint256","internalType":"uint256"},{"name":"_paymentReference","type":"bytes","internalType":"bytes"},{"name":"_shouldPayoutViaRequestNetwork","type":"bool","internalType":"bool"}],"outputs":[],"stateMutability":"nonpayable"},{"type":"function","name":"payInvoiceERC20Escrow","inputs":[{"name":"_payee","type":"address","internalType":"address"},{"name":"_feeAddress","type":"address","internalType":"address"},{"name":"_amount","type":"uint256","internalType":"uint256"},{"name":"_feeAmount","type":"uint256","internalType":"uint256"},{"name":"_paymentReference","type":"bytes","internalType":"bytes"},{"name":"_shouldPayoutViaRequestNetwork","type":"bool","internalType":"bool"}],"outputs":[],"stateMutability":"nonpayable"},{"type":"function","name":"payOutERC20Invoice","inputs":[{"name":"payoutReferencesArray","type":"bytes[]","internalType":"bytes[]"}],"outputs":[],"stateMutability":"nonpayable"},{"type":"function","name":"paymentMapping","inputs":[{"name":"","type":"bytes","internalType":"bytes"}],"outputs":[{"name":"amount","type":"uint256","internalType":"uint256"},{"name":"feeAmount","type":"uint256","internalType":"uint256"},{"name":"wrapperSharesReceived","type":"uint256","internalType":"uint256"},{"name":"dueDate","type":"uint40","internalType":"uint40"},{"name":"payer","type":"address","internalType":"address"},{"name":"payee","type":"address","internalType":"address"},{"name":"feeAddress","type":"address","internalType":"address"},{"name":"shouldPayoutViaRequestNetwork","type":"bool","internalType":"bool"}],"stateMutability":"view"},{"type":"function","name":"releaseEscrowPayment","inputs":[{"name":"_paymentReference","type":"bytes","internalType":"bytes"}],"outputs":[],"stateMutability":"nonpayable"},{"type":"function","name":"renounceOwnership","inputs":[],"outputs":[],"stateMutability":"nonpayable"},{"type":"function","name":"setContractParameters","inputs":[{"name":"_contractFeeModifier","type":"uint16","internalType":"uint16"},{"name":"_minDueDateParameter","type":"uint256","internalType":"uint256"},{"name":"_maxDueDateParameter","type":"uint256","internalType":"uint256"},{"name":"_minTotalAmountParameter","type":"uint256","internalType":"uint256"},{"name":"_maxPayoutArraySize","type":"uint8","internalType":"uint8"}],"outputs":[],"stateMutability":"nonpayable"},{"type":"function","name":"setERC20FeeProxy","inputs":[{"name":"_ERC20FeeProxyAddress","type":"address","internalType":"address"}],"outputs":[],"stateMutability":"nonpayable"},{"type":"function","name":"transferOwnership","inputs":[{"name":"newOwner","type":"address","internalType":"address"}],"outputs":[],"stateMutability":"nonpayable"},{"type":"function","name":"unpause","inputs":[],"outputs":[],"stateMutability":"nonpayable"},{"type":"function","name":"wrapperAddress","inputs":[],"outputs":[{"name":"","type":"address","internalType":"address"}],"stateMutability":"view"},{"type":"event","name":"ClaimCompRewardsEvent","inputs":[],"anonymous":false},{"type":"event","name":"ContractParametersUpdatedEvent","inputs":[{"name":"contractFeeModifier","type":"uint16","indexed":false,"internalType":"uint16"},{"name":"minDueDateParameter","type":"uint256","indexed":false,"internalType":"uint256"},{"name":"maxDueDateParameter","type":"uint256","indexed":false,"internalType":"uint256"},{"name":"minTotalAmount","type":"uint256","indexed":false,"internalType":"uint256"},{"name":"maxPayoutArraySize","type":"uint8","indexed":false,"internalType":"uint8"}],"anonymous":false},{"type":"event","name":"InterestPayoutEvent","inputs":[{"name":"tokenAddress","type":"address","indexed":false,"internalType":"address"},{"name":"payee","type":"address","indexed":false,"internalType":"address"},{"name":"interestAmount","type":"uint256","indexed":false,"internalType":"uint256"},{"name":"paymentReference","type":"bytes","indexed":false,"internalType":"bytes"}],"anonymous":false},{"type":"event","name":"OwnershipTransferred","inputs":[{"name":"previousOwner","type":"address","indexed":true,"internalType":"address"},{"name":"newOwner","type":"address","indexed":true,"internalType":"address"}],"anonymous":false},{"type":"event","name":"Paused","inputs":[{"name":"account","type":"address","indexed":false,"internalType":"address"}],"anonymous":false},{"type":"event","name":"PayOutERC20Event","inputs":[{"name":"tokenAddress","type":"address","indexed":false,"internalType":"address"},{"name":"payee","type":"address","indexed":false,"internalType":"address"},{"name":"feeAddress","type":"address","indexed":false,"internalType":"address"},{"name":"amount","type":"uint256","indexed":false,"internalType":"uint256"},{"name":"paymentReference","type":"bytes","indexed":false,"internalType":"bytes"},{"name":"feeAmount","type":"uint256","indexed":false,"internalType":"uint256"}],"anonymous":false},{"type":"event","name":"PaymentERC20Event","inputs":[{"name":"tokenAddress","type":"address","indexed":false,"internalType":"address"},{"name":"payee","type":"address","indexed":false,"internalType":"address"},{"name":"feeAddress","type":"address","indexed":false,"internalType":"address"},{"name":"amount","type":"uint256","indexed":false,"internalType":"uint256"},{"name":"dueDate","type":"uint40","indexed":false,"internalType":"uint40"},{"name":"feeAmount","type":"uint256","indexed":false,"internalType":"uint256"},{"name":"paymentReference","type":"bytes","indexed":false,"internalType":"bytes"}],"anonymous":false},{"type":"event","name":"SetERC20FeeProxyEvent","inputs":[{"name":"ERC20FeeProxyAddress","type":"address","indexed":false,"internalType":"address"}],"anonymous":false},{"type":"event","name":"Unpaused","inputs":[{"name":"account","type":"address","indexed":false,"internalType":"address"}],"anonymous":false},{"type":"error","name":"DueDateNotAllowed","inputs":[]},{"type":"error","name":"InvalidArrayLength","inputs":[]},{"type":"error","name":"InvalidContractFeeModifier","inputs":[]},{"type":"error","name":"InvalidMaxArraySize","inputs":[]},{"type":"error","name":"InvalidMaxDueDate","inputs":[]},{"type":"error","name":"InvalidMinAmount","inputs":[]},{"type":"error","name":"InvalidMinDueDate","inputs":[]},{"type":"error","name":"InvalidTotalAmount","inputs":[]},{"type":"error","name":"NoPrePayment","inputs":[]},{"type":"error","name":"NotPayer","inputs":[]},{"type":"error","name":"PaymentReferenceInUse","inputs":[]},{"type":"error","name":"ReferenceNotDue","inputs":[]},{"type":"error","name":"ReferenceNotInEscrow","inputs":[]},{"type":"error","name":"ZeroAmount","inputs":[]},{"type":"error","name":"ZeroFeeAddress","inputs":[]},{"type":"error","name":"ZeroPayeeAddress","inputs":[]}],"bytecode":{"object":"0x60e080604052600060e0826125b7803803809161001c828561033a565b8339810103126103335761002f82610373565b9161003c60208201610373565b92604082015161ffff8116928382036103365760608101519360808201519560c060a08401519301519260ff841691828503610333578054336001600160a01b0382167f8be0079c531659141344cd1fd0a4f28419497f9722a3daafe3b4186f6b6457e08480a36001600160a81b0319163360ff60a01b19161790556001805561138883108015610328575b61031757620697808710610306576301e1338088116102f557600181106102e45781156102d3576004976020977f7e2c6359e276662df7728b39a0ad6d74d0333c402835ac343a5208bbf5a23d549660a0966002549083600355848d558560055560ff891b90891b169161ffff60a81b9060a81b169062ffffff891b1916171760025560405194855288850152604084015260608301526080820152a160c081905260405163c55dae6360e01b815292839182906001600160a01b03165afa90811561028857600091610299575b5060805260a081905260c0516001600160a01b031690813b156102945760405163110496e560e01b81526001600160a01b03909116600482015260016024820152906000908290604490829084905af1801561028857610276575b60405161222f90816103888239608051818181610235015281816102d8015281816103fa01528181610ab801528181610eb001526117bd015260a0518181816104fb015281816109a101528181610f020152818161158701526118b5015260c05181818161043d01528181610ba601528181610eda015281816118000152611e190152f35b60006102819161033a565b60006101f1565b6040513d6000823e3d90fd5b600080fd5b90506020813d6020116102cb575b816102b46020938361033a565b81010312610294576102c590610373565b38610196565b3d91506102a7565b63f39d15db60e01b60005260046000fd5b639c68554f60e01b60005260046000fd5b6329efbf6360e21b60005260046000fd5b63f57c57d360e01b60005260046000fd5b637b4a552360e11b60005260046000fd5b5061271083116100c8565b80fd5b8480fd5b601f909101601f19168101906001600160401b0382119082101761035d57604052565b634e487b7160e01b600052604160045260246000fd5b51906001600160a01b03821682036102945756fe608080604052600436101561001357600080fd5b600090813560e01c9081631949b25c14611af8575080631ab2c853146116fe57806324c20740146116d55780633d1d15bf146116b75780633f4ba83a1461161c57806345107cae1461156057806346778635146114c85780634beb2a1e14610e4157806350fba64a14610d7f5780635738e81814610c365780635891139714610c185780635c975abb14610bf3578063616212ba14610bd55780636bbb194b14610b905780636e2f87f314610a2a578063715018a6146109d05780637df8b8021461098b5780638456cb591461092a5780638c4c7e04146107db5780638da5cb5b146107b4578063c11e284614610790578063c825a74114610307578063cdf456e1146102c2578063ed19fa84146101fc5763f2fde38b1461013457600080fd5b346101f95760203660031901126101f95761014d611b1b565b610155611f7e565b6001600160a01b031680156101a55781546001600160a01b03198116821783556001600160a01b03167f8be0079c531659141344cd1fd0a4f28419497f9722a3daafe3b4186f6b6457e08380a380f35b60405162461bcd60e51b815260206004820152602660248201527f4f776e61626c653a206e6577206f776e657220697320746865207a65726f206160448201526564647265737360d01b6064820152608490fd5b80fd5b50346101f957806003193601126101f957610215611f7e565b80546040516370a0823160e01b8152306004820152906001600160a01b037f000000000000000000000000000000000000000000000000000000000000000081169116602083602481855afa9182156102b757849261027c575b6102799350611fd6565b80f35b91506020833d6020116102af575b8161029760209383611ba8565b810103126102aa5761027992519161026f565b600080fd5b3d915061028a565b6040513d86823e3d90fd5b50346101f957806003193601126101f9576040517f00000000000000000000000000000000000000000000000000000000000000006001600160a01b03168152602090f35b50346101f95760e03660031901126101f957610321611b1b565b610329611b31565b6044359164ffffffffff831680930361070c576064359260843560a43567ffffffffffffffff811161078c57610363903690600401611b47565b91909260c435968715158098036107885761037c611d1b565b610384611d71565b6040518486823760208186810160068152030190206103a38483611c72565b968215610779576001600160a01b031697881561076a576001600160a01b0316908115610758575461074957600554871061073a5764ffffffffff6103ea60035442611c72565b168310801561071f575b610710577f00000000000000000000000000000000000000000000000000000000000000006001600160a01b038116978b906104328130338d611db8565b61043a611dfe565b927f000000000000000000000000000000000000000000000000000000000000000061046783828e611e90565b6001600160a01b031691823b1561070c57604051631e573fb760e31b81526001600160a01b0392909216600483015260248201529082908290604490829084905af18015610701576106e8575b505060206104cc6104f7926104c7611dfe565b611c95565b604051636e553f6560e01b815260048101919091523060248201529182908d90829081906044820190565b03917f00000000000000000000000000000000000000000000000000000000000000006001600160a01b03165af19081156106dd578b91610697575b509061065b877f160b9883c8416d313cc749bc5858db361276143105365a035258beace5bf3b3e9b600561068d9a99989796958d6040519161057483611b75565b8883528b60208401918c83526040850190815260608501928c8452608086019233845260a08701958652602060c088019a8d8c5260e089019a8b5282604051938492833760069082019081520301902095518655516001860155516002850155905160038401805492516001600160c81b031990931664ffffffffff929092169190911760289290921b65010000000000600160c81b0316919091179055516004820180546001600160a01b0319166001600160a01b0392831617905593519101805492516001600160a81b0319909316919093161790151560a01b60ff60a01b16179055565b6040519889988952602089015260408801526060870152608086015260a085015260e060c085015260e0840191611ca2565b0390a16001805580f35b96959493929190506020873d6020116106d5575b816106b860209383611ba8565b810103126102aa579551949593949293919290919061065b610533565b3d91506106ab565b6040513d8d823e3d90fd5b816106f291611ba8565b6106fd578a386104b4565b8a80fd5b6040513d84823e3d90fd5b8380fd5b6354ad112d60e11b8a5260048afd5b5064ffffffffff61073260045442611c72565b1683116103f4565b6324204a3560e21b8a5260048afd5b630a685b0f60e41b8a5260048afd5b600162287bad60e01b03198b5260048bfd5b631781d75760e01b8b5260048bfd5b631f2a200560e01b8b5260048bfd5b8880fd5b8680fd5b50346101f957806003193601126101f957602060ff60025460a01c16604051908152f35b50346101f957806003193601126101f957546040516001600160a01b039091168152602090f35b50346101f95760a03660031901126101f95760043561ffff81169081810361092657602435604435606435916084359360ff8516948581036109225761081f611f7e565b61138887108015610917575b610908576206978083106108f9576301e1338084116108ea57600185106108db5785156108cc579160a09593917f7e2c6359e276662df7728b39a0ad6d74d0333c402835ac343a5208bbf5a23d549795936002549083600355846004558560055560ff891b90891b169161ffff60a81b9060a81b169062ffffff891b191617176002556040519485526020850152604084015260608301526080820152a180f35b63f39d15db60e01b8852600488fd5b639c68554f60e01b8852600488fd5b6329efbf6360e21b8852600488fd5b63f57c57d360e01b8852600488fd5b637b4a552360e11b8852600488fd5b50612710871161082b565b8780fd5b8280fd5b50346101f957806003193601126101f957610943611f7e565b61094b611d71565b805460ff60a01b1916600160a01b1781556040513381527f62e78cea01bee320cd4e420270b5ea74000d11b0c9f74754ebdbfc544b05a25890602090a180f35b50346101f957806003193601126101f9576040517f00000000000000000000000000000000000000000000000000000000000000006001600160a01b03168152602090f35b50346101f957806003193601126101f9576109e9611f7e565b80546001600160a01b03198116825581906001600160a01b03167f8be0079c531659141344cd1fd0a4f28419497f9722a3daafe3b4186f6b6457e08280a380f35b50346101f95760203660031901126101f9577fe87b20abc05306d2c168a182a3fbbea47f82ba3e6fb70ee1cafd86603730916f6020610a67611b1b565b610a6f611f7e565b600280546001600160a01b0319166001600160a01b0392831690811790915560405163095ea7b360e01b84820190815260248201839052600019604480840191909152825291927f0000000000000000000000000000000000000000000000000000000000000000169186908190610ae8606485611ba8565b83519082865af1610af7612116565b81610b63575b5080610b59575b15610b16575b5050604051908152a180f35b610b5291610b4d60405163095ea7b360e01b8782015285602482015288604482015260448152610b47606482611ba8565b8261202a565b61202a565b3880610b0a565b50813b1515610b04565b8051801592508215610b78575b505038610afd565b610b89925081018601908601612012565b3880610b70565b50346101f957806003193601126101f9576040517f00000000000000000000000000000000000000000000000000000000000000006001600160a01b03168152602090f35b50346101f957806003193601126101f9576020600354604051908152f35b50346101f957806003193601126101f95760ff6020915460a01c166040519015158152f35b50346101f957806003193601126101f9576020600554604051908152f35b50346101f957610c98602061010092610c4e36611be6565b9060e0604051610c5d81611b75565b82815282858201528260408201528260608201528260808201528260a08201528260c082015201528160405193828580945193849201611c4f565b8101600681520301902060405190610caf82611b75565b8054918281526001820154916020820192835260028101546040830190815264ffffffffff60038301549160608501908284168252608086019360018060a01b039060281c168452600560018060a01b036004870154169560a0880196875201549660ff60e060c089019860018060a01b038b168a52019860a01c16151588526040519889525160208901525160408801525116606086015260018060a01b03905116608085015260018060a01b0390511660a084015260018060a01b0390511660c083015251151560e0820152f35b50346101f957610da66020610d9336611be6565b8160405193828580945193849201611c4f565b810160068152030190206003810190815460018060a01b038160281c163303610e325764ffffffffff16610e23575415610e145761b4784201804211610e0057815464ffffffffff191664ffffffffff9190911617905580f35b634e487b7160e01b83526011600452602483fd5b632a313f9360e01b8252600482fd5b63e6ef264960e01b8352600483fd5b631435e35760e01b8452600484fd5b50346101f95760203660031901126101f95760043567ffffffffffffffff81116113da57366023820112156113da5780600401359067ffffffffffffffff8211610926576024810190602436918460051b01011161092657610ea1611d1b565b811580156114b7575b6114a8577f0000000000000000000000000000000000000000000000000000000000000000916001600160a01b037f0000000000000000000000000000000000000000000000000000000000000000811691818516917f00000000000000000000000000000000000000000000000000000000000000001690865b818110610f3457876001805580f35b6020610f41828489611cc3565b91908260405193849283378101600681520301902080549081156114995760038101549064ffffffffff8216428111908115611490575b506114815790818960058d96959401549387600160a01b6001900360048501541694600160a01b600190039060281c169780600160a01b60019003881694896001880154976002015494610fcb92611cc3565b908160405192839283378101600681520360200190208181558160018201558160028201558160038201558160048201556005015560405191635d043b2960e11b8352600483015230602483015230604483015280828c815a93606492602095f180156113b85761144c575b6040516370a0823160e01b815230600482015291506020826024818f5afa9182156113b8578d908293611414575b506020602491604051928380926370a0823160e01b82523060048301525afa9081156107015782916113de575b508d3b156113da578f6110d4918f84928360405180968195829463f3fef3a360e01b84526004840160209093929193604081019460018060a01b031681520152565b03925af18015610701576113c5575b5060249060208d604051938480926370a0823160e01b82523060048301525afa80156113b857869285929161137d575b50906104c7611125946104c793611c95565b61ffff60025460a81c169081810291818304149015171561136957908a8f9493928e600160ff6127108e94049a60a01c161515146000146112f2576002546001600160a01b03169250611179918a91611cc3565b8291923b1561078c578691888f84906111c06040519788968795869463c219a14d60e01b8652600486015260248501528a604485015260c0606485015260c4840191611ca2565b8a60848301528960a483015203925af180156112e7578c958f91928c936112b8575b50507fa5ed23d5ebdea6438acd5b68a3befbb14c431a7a8f221448bfb708ab8a408e9f97969360019a96936112498b7f3c77ae279df37c7ea5dd3a57f101c57dac95417ce9c24279d6ec87d9399c82d79895611274955b6112448d8d8b611fd6565b611cc3565b919092604051978897885260208801526040870152606086015260c0608086015260c0850191611ca2565b9060a08301520390a16112af61128b85888d611cc3565b6040519485948c865260208601526040850152608060608501526080840191611ca2565b0390a101610f25565b9093959897949a96506112ce9250839150611ba8565b6112e35792939095899296888f8e90386111e2565b8d80fd5b6040513d87823e3d90fd5b60019a965093836112498b611274948b9861135388997fa5ed23d5ebdea6438acd5b68a3befbb14c431a7a8f221448bfb708ab8a408e9f9f9e7f3c77ae279df37c7ea5dd3a57f101c57dac95417ce9c24279d6ec87d9399c82d79d9a611fd6565b87156112395761136488878b611fd6565b611239565b634e487b7160e01b8f52601160045260248ffd5b9250505060203d81116113b1575b6113958183611ba8565b602082600092810103126101f9575051849083906104c7611113565b503d61138b565b50604051903d90823e3d90fd5b6113d0828092611ba8565b6101f957386110e3565b5080fd5b91505060203d811161140d575b6113f58183611ba8565b602082600092810103126101f957508f905138611092565b503d6113eb565b9250505060203d8111611445575b61142c8183611ba8565b602082600092810103126101f95750518e8c6020611065565b503d611422565b5060203d811161147a575b6114618183611ba8565b602082600092810103126101f95750602490508e611037565b503d611457565b631db89f5b60e11b8b5260048bfd5b90501538610f78565b632a313f9360e01b8a5260048afd5b634ec4810560e11b8352600483fd5b5060ff60025460a01c168211610eaa565b50346101f9576101006114df6020610d9336611be6565b8101600681520301902060ff8154916001810154906002810154600382015490600560018060a01b03600485015416930154936040519687526020870152604086015264ffffffffff8116606086015260018060a01b039060281c16608085015260a084015260018060a01b03811660c084015260a01c16151560e0820152f35b50346101f957806003193601126101f957611579611f7e565b805481906001600160a01b037f000000000000000000000000000000000000000000000000000000000000000081169116813b1561161857829160248392604051948593849263144c5ebf60e31b845260048401525af1801561070157611603575b50807f0f309b4696119e6e18fbd9e53a22aa0b232e1b79c43f021161aef5859445645191a180f35b8161160d91611ba8565b6101f95780386115db565b5050fd5b50346101f957806003193601126101f957611635611f7e565b805460ff8160a01c161561167b5760ff60a01b191681556040513381527f5db9ee0a495bf2e6ff9c91a7834c1ba4fdd244a5e8aa4e537bd38aeae4b073aa90602090a180f35b60405162461bcd60e51b815260206004820152601460248201527314185d5cd8589b194e881b9bdd081c185d5cd95960621b6044820152606490fd5b50346101f957806003193601126101f9576020600454604051908152f35b50346101f957806003193601126101f9576002546040516001600160a01b039091168152602090f35b50346101f95760c03660031901126101f957611718611b1b565b611720611b31565b6044359160643560843567ffffffffffffffff8111611af457611747903690600401611b47565b909160a435958615158097036109225761175f611d1b565b611767611d71565b6040518385823760208185810160068152030190206117868383611c72565b958215611ae5576001600160a01b0316968715611ad6576001600160a01b0316908115611ac45754611ab5576005548610611aa6577f00000000000000000000000000000000000000000000000000000000000000006001600160a01b03811696906117f48230338b611db8565b8a6117fd611dfe565b927f000000000000000000000000000000000000000000000000000000000000000061182a82828d611e90565b6001600160a01b0316803b1561092657604051631e573fb760e31b81526001600160a01b0394909416600485015260248401919091528290604490829084905af180156106dd57611a89575b508960206118896118b0936104c7611dfe565b604051636e553f6560e01b8152600481019190915230602482015292839081906044820190565b0381847f00000000000000000000000000000000000000000000000000000000000000006001600160a01b03165af19182156113b8578192611a47575b50867f160b9883c8416d313cc749bc5858db361276143105365a035258beace5bf3b3e9a600561068d9998979695948c611a14956040519261192e84611b75565b89845260208401908b82526040850190815260608501928352608085019133835260a086019485528d602060c088019a8d8c5260e089019a8b5282604051938492833760069082019081520301902095518655516001860155516002850155905160038401805492516001600160c81b031990931664ffffffffff929092169190911760289290921b65010000000000600160c81b0316919091179055516004820180546001600160a01b0319166001600160a01b0392831617905593519101805492516001600160a81b0319909316919093161790151560a01b60ff60a01b16179055565b604051978897885260208801526040870152606086015287608086015260a085015260e060c085015260e0840191611ca2565b96959493929150506020863d602011611a81575b81611a6860209383611ba8565b810103126102aa579451939492939192909189866118ed565b3d9150611a5b565b9060208b611a9d6118899d6118b095611ba8565b9b505090611876565b6324204a3560e21b8952600489fd5b630a685b0f60e41b8952600489fd5b600162287bad60e01b03198a5260048afd5b631781d75760e01b8a5260048afd5b631f2a200560e01b8a5260048afd5b8580fd5b9050346113da57816003193601126113da5760209061ffff60025460a81c168152f35b600435906001600160a01b03821682036102aa57565b602435906001600160a01b03821682036102aa57565b9181601f840112156102aa5782359167ffffffffffffffff83116102aa57602083818601950101116102aa57565b610100810190811067ffffffffffffffff821117611b9257604052565b634e487b7160e01b600052604160045260246000fd5b90601f8019910116810190811067ffffffffffffffff821117611b9257604052565b67ffffffffffffffff8111611b9257601f01601f191660200190565b60206003198201126102aa5760043567ffffffffffffffff81116102aa57816023820112156102aa57806004013590611c1e82611bca565b92611c2c6040519485611ba8565b828452602483830101116102aa5781600092602460209301838601378301015290565b60005b838110611c625750506000910152565b8181015183820152602001611c52565b91908201809211611c7f57565b634e487b7160e01b600052601160045260246000fd5b91908203918211611c7f57565b908060209392818452848401376000828201840152601f01601f1916010190565b9190811015611d055760051b81013590601e19813603018212156102aa57019081359167ffffffffffffffff83116102aa5760200182360381136102aa579190565b634e487b7160e01b600052603260045260246000fd5b600260015414611d2c576002600155565b60405162461bcd60e51b815260206004820152601f60248201527f5265656e7472616e637947756172643a207265656e7472616e742063616c6c006044820152606490fd5b60ff60005460a01c16611d8057565b60405162461bcd60e51b815260206004820152601060248201526f14185d5cd8589b194e881c185d5cd95960821b6044820152606490fd5b6040516323b872dd60e01b60208201526001600160a01b039283166024820152929091166044830152606480830193909352918152611dfc91610b4d608483611ba8565b565b6040516370a0823160e01b81523060048201526020816024817f00000000000000000000000000000000000000000000000000000000000000006001600160a01b03165afa908115611e8457600091611e55575090565b90506020813d602011611e7c575b81611e7060209383611ba8565b810103126102aa575190565b3d9150611e63565b6040513d6000823e3d90fd5b60405163095ea7b360e01b602082019081526001600160a01b03841660248301526044808301959095529381529192611eca606484611ba8565b82516001600160a01b03831691600091829182855af190611ee9612116565b82611f4c575b5081611f41575b5015611f0157505050565b60405163095ea7b360e01b60208201526001600160a01b03909316602484015260006044808501919091528352611dfc92610b4d90610b47606482611ba8565b90503b151538611ef6565b80519192508115918215611f64575b50509038611eef565b611f779250602080918301019101612012565b3880611f5b565b6000546001600160a01b03163303611f9257565b606460405162461bcd60e51b815260206004820152602060248201527f4f776e61626c653a2063616c6c6572206973206e6f7420746865206f776e65726044820152fd5b60405163a9059cbb60e01b60208201526001600160a01b03929092166024830152604480830193909352918152611dfc91610b4d606483611ba8565b908160209103126102aa575180151581036102aa5790565b60408051909261208f926001600160a01b031690600090819061204d8786611ba8565b602085527f5361666545524332303a206c6f772d6c6576656c2063616c6c206661696c6564602086015260208151910182855af1612089612116565b91612146565b80519081159182156120fc575b5050156120a65750565b5162461bcd60e51b815260206004820152602a60248201527f5361666545524332303a204552433230206f7065726174696f6e20646964206e6044820152691bdd081cdd58d8d9595960b21b6064820152608490fd5b61210f9250602080918301019101612012565b388061209c565b3d15612141573d9061212782611bca565b916121356040519384611ba8565b82523d6000602084013e565b606090565b919290156121a8575081511561215a575090565b3b156121635790565b60405162461bcd60e51b815260206004820152601d60248201527f416464726573733a2063616c6c20746f206e6f6e2d636f6e74726163740000006044820152606490fd5b8251909150156121bb5750805190602001fd5b6044604051809262461bcd60e51b8252602060048301526121eb8151809281602486015260208686019101611c4f565b601f01601f19168101030190fdfea26469706673582212200da24330ecbae4a617864c59617a2baedd54fd11af93981533319373f8333d3b64736f6c634300081a0033","linkReferences":{}},"methodIdentifiers":{"ERC20FeeProxyAddress()":"24c20740","baseAsset()":"cdf456e1","claimBaseAssetBalance()":"ed19fa84","claimCompRewards()":"45107cae","cometAddress()":"6bbb194b","contractFeeModifier()":"1949b25c","getMapping(bytes)":"5738e818","maxDueDateParameter()":"3d1d15bf","maxPayoutArraySize()":"c11e2846","minDueDateParameter()":"616212ba","minTotalAmountParameter()":"58911397","owner()":"8da5cb5b","pause()":"8456cb59","paused()":"5c975abb","payInvoiceERC20(address,address,uint40,uint256,uint256,bytes,bool)":"c825a741","payInvoiceERC20Escrow(address,address,uint256,uint256,bytes,bool)":"1ab2c853","payOutERC20Invoice(bytes[])":"4beb2a1e","paymentMapping(bytes)":"46778635","releaseEscrowPayment(bytes)":"50fba64a","renounceOwnership()":"715018a6","setContractParameters(uint16,uint256,uint256,uint256,uint8)":"8c4c7e04","setERC20FeeProxy(address)":"6e2f87f3","transferOwnership(address)":"f2fde38b","unpause()":"3f4ba83a","wrapperAddress()":"7df8b802"},"id":31}